{
  "transactions": [
    {
      "hash": "0x2ee391752d79767ceeb53332967a82fbb0737b519040b803b997bc7a177f85f4",
      "transactionType": "CALL",
      "contractName": null,
      "contractAddress": "0x1c7d4b196cb0c7b01d743fbc6116a902379c7238",
      "function": "approve(address,uint256)",
      "arguments": [
        "0x48f9219Cc45aD25c14aaBedf70d12b37041Bb9db",
        "100000"
      ],
      "transaction": {
        "from": "0x4d7233cab735078318ac948b1400fbe660048830",
        "to": "0x1c7d4b196cb0c7b01d743fbc6116a902379c7238",
        "gas": "0x12b1b",
        "value": "0x0",
        "input": "0x095ea7b300000000000000000000000048f9219cc45ad25c14aabedf70d12b37041bb9db00000000000000000000000000000000000000000000000000000000000186a0",
        "nonce": "0x51",
        "chainId": "0xaa36a7"
      },
      "additionalContracts": [],
      "isFixedGasLimit": false
    },
    {
      "hash": "0xcdbc6ac63dd5a64f8dfa71acd403e11dccffecea2d18e03aac2991db6b4b8713",
      "transactionType": "CALL",
      "contractName": "OptionManager",
      "contractAddress": "0x48f9219cc45ad25c14aabedf70d12b37041bb9db",
      "function": "createOptionPut(uint256,uint256,uint256,address,uint256)",
      "arguments": [
        "100000",
        "10000",
        "1738401900",
        "0x6e6aD3E15a255A1fAfbF19C2EC2426147071CA0C",
        "1"
      ],
      "transaction": {
        "from": "0x4d7233cab735078318ac948b1400fbe660048830",
        "to": "0x48f9219cc45ad25c14aabedf70d12b37041bb9db",
        "gas": "0x47d12",
        "value": "0x0",
        "input": "0x3c630ccf00000000000000000000000000000000000000000000000000000000000186a0000000000000000000000000000000000000000000000000000000000000271000000000000000000000000000000000000000000000000000000000679de86c0000000000000000000000006e6ad3e15a255a1fafbf19c2ec2426147071ca0c0000000000000000000000000000000000000000000000000000000000000001",
        "nonce": "0x52",
        "chainId": "0xaa36a7"
      },
      "additionalContracts": [],
      "isFixedGasLimit": false
    }
  ],
  "receipts": [
    {
      "status": "0x1",
      "cumulativeGasUsed": "0xfe1e96",
      "logs": [
        {
          "address": "0x1c7d4b196cb0c7b01d743fbc6116a902379c7238",
          "topics": [
            "0x8c5be1e5ebec7d5bd14f71427d1e84f3dd0314c0f7b2291e5b200ac8c7c3b925",
            "0x0000000000000000000000004d7233cab735078318ac948b1400fbe660048830",
            "0x00000000000000000000000048f9219cc45ad25c14aabedf70d12b37041bb9db"
          ],
          "data": "0x00000000000000000000000000000000000000000000000000000000000186a0",
          "blockHash": "0x0d4f5e3528d0874966d8370a17b8f03405338ced3347f7d52d930e6fb080fdff",
          "blockNumber": "0x743769",
          "transactionHash": "0x2ee391752d79767ceeb53332967a82fbb0737b519040b803b997bc7a177f85f4",
          "transactionIndex": "0x7d",
          "logIndex": "0x97",
          "removed": false
        }
      ],
      "logsBloom": "0x00000000000000000000000000000000000000000000000000000000000200000000000000000000000000000000000000000000000000000000000000200000000000000000000000000000000000000000000000000000000000000000000000000000000000000000000000000000000000000000000000000000000000000000000000100000000000000000000000000000004000000000000010000000020000000000000000000000000000000000000000000000000000000000000000008000000000000000000000008000001000000000000000000000000000000010000000000000000090000000000000000000000000000000000000000000",
      "type": "0x2",
      "transactionHash": "0x2ee391752d79767ceeb53332967a82fbb0737b519040b803b997bc7a177f85f4",
      "transactionIndex": "0x7d",
      "blockHash": "0x0d4f5e3528d0874966d8370a17b8f03405338ced3347f7d52d930e6fb080fdff",
      "blockNumber": "0x743769",
      "gasUsed": "0xd88d",
      "effectiveGasPrice": "0xeaeed1c8",
      "from": "0x4d7233cab735078318ac948b1400fbe660048830",
      "to": "0x1c7d4b196cb0c7b01d743fbc6116a902379c7238",
      "contractAddress": null
    },
    {
      "status": "0x1",
      "cumulativeGasUsed": "0x1013047",
      "logs": [
        {
          "address": "0x1c7d4b196cb0c7b01d743fbc6116a902379c7238",
          "topics": [
            "0xddf252ad1be2c89b69c2b068fc378daa952ba7f163c4a11628f55a4df523b3ef",
            "0x0000000000000000000000004d7233cab735078318ac948b1400fbe660048830",
            "0x00000000000000000000000048f9219cc45ad25c14aabedf70d12b37041bb9db"
          ],
          "data": "0x00000000000000000000000000000000000000000000000000000000000186a0",
          "blockHash": "0x0d4f5e3528d0874966d8370a17b8f03405338ced3347f7d52d930e6fb080fdff",
          "blockNumber": "0x743769",
          "transactionHash": "0xcdbc6ac63dd5a64f8dfa71acd403e11dccffecea2d18e03aac2991db6b4b8713",
          "transactionIndex": "0x7e",
          "logIndex": "0x98",
          "removed": false
        },
        {
          "address": "0x48f9219cc45ad25c14aabedf70d12b37041bb9db",
          "topics": [
            "0x82c06dc461a08b46213483cee74f121f088a24b837dfa3976a0a9d9d5fc385ca",
            "0x0000000000000000000000004d7233cab735078318ac948b1400fbe660048830"
          ],
          "data": "0x0000000000000000000000000000000000000000000000000000000000000005000000000000000000000000000000000000000000000000000000000000000000000000000000000000000000000000000000000000000000000000000186a000000000000000000000000000000000000000000000000000000000000027100000000000000000000000006e6ad3e15a255a1fafbf19c2ec2426147071ca0c000000000000000000000000000000000000000000000000000000000000000100000000000000000000000000000000000000000000000000000000679de86c",
          "blockHash": "0x0d4f5e3528d0874966d8370a17b8f03405338ced3347f7d52d930e6fb080fdff",
          "blockNumber": "0x743769",
          "transactionHash": "0xcdbc6ac63dd5a64f8dfa71acd403e11dccffecea2d18e03aac2991db6b4b8713",
          "transactionIndex": "0x7e",
          "logIndex": "0x99",
          "removed": false
        }
      ],
      "logsBloom": "0x00000000000000000000000000000000000000000000000000000000000200000000000000000000000000000000000000000000000000000000000000000000000000000000000000000008000000000000000000000000000000000000000000000000000000000000000000000000000000000000000000000010000000000000200000300000000000000000000000000000004800000000000010000000000000000000000000000000000000000000000000000000000000000000000000008002000000000000000000008000001000000000000000000000000000000000000000000008000090000000000000000040000000000000000000008000",
      "type": "0x2",
      "transactionHash": "0xcdbc6ac63dd5a64f8dfa71acd403e11dccffecea2d18e03aac2991db6b4b8713",
      "transactionIndex": "0x7e",
      "blockHash": "0x0d4f5e3528d0874966d8370a17b8f03405338ced3347f7d52d930e6fb080fdff",
      "blockNumber": "0x743769",
      "gasUsed": "0x311b1",
      "effectiveGasPrice": "0xeaeed1c8",
      "from": "0x4d7233cab735078318ac948b1400fbe660048830",
      "to": "0x48f9219cc45ad25c14aabedf70d12b37041bb9db",
      "contractAddress": null
    }
  ],
  "libraries": [],
  "pending": [],
  "returns": {},
  "timestamp": 1738401625,
  "chain": 11155111,
  "commit": "ebd54fd"
}