{
  "transactions": [
    {
      "hash": "0x0833ee92a7f7639445f6f48260d0b1219474acd4503c6f47688ce718a196dd47",
      "transactionType": "CALL",
      "contractName": null,
      "contractAddress": "0x1c7d4b196cb0c7b01d743fbc6116a902379c7238",
      "function": "approve(address,uint256)",
      "arguments": [
        "0xdD0CeF363CD9873a793b611812cfc712b9c70DB8",
        "100000"
      ],
      "transaction": {
        "from": "0xd2c2011d8c700094712c43435d16e3a9703e7f96",
        "to": "0x1c7d4b196cb0c7b01d743fbc6116a902379c7238",
        "gas": "0x12b1b",
        "value": "0x0",
        "input": "0x095ea7b3000000000000000000000000dd0cef363cd9873a793b611812cfc712b9c70db800000000000000000000000000000000000000000000000000000000000186a0",
        "nonce": "0x4",
        "chainId": "0xaa36a7"
      },
      "additionalContracts": [],
      "isFixedGasLimit": false
    },
    {
      "hash": "0x4b46f563606918ab9cba6af3ac920658a26bf336857436a221cd0b92f6c4be45",
      "transactionType": "CALL",
      "contractName": null,
      "contractAddress": "0xdd0cef363cd9873a793b611812cfc712b9c70db8",
      "function": "createOptionPut(uint256,uint256,uint256,address,uint256)",
      "arguments": [
        "100000",
        "10000",
        "1738358316",
        "0x6e6aD3E15a255A1fAfbF19C2EC2426147071CA0C",
        "1"
      ],
      "transaction": {
        "from": "0xd2c2011d8c700094712c43435d16e3a9703e7f96",
        "to": "0xdd0cef363cd9873a793b611812cfc712b9c70db8",
        "gas": "0x4f9aa",
        "value": "0x0",
        "input": "0x3c630ccf00000000000000000000000000000000000000000000000000000000000186a0000000000000000000000000000000000000000000000000000000000000271000000000000000000000000000000000000000000000000000000000679d3e2c0000000000000000000000006e6ad3e15a255a1fafbf19c2ec2426147071ca0c0000000000000000000000000000000000000000000000000000000000000001",
        "nonce": "0x5",
        "chainId": "0xaa36a7"
      },
      "additionalContracts": [],
      "isFixedGasLimit": false
    }
  ],
  "receipts": [
    {
      "status": "0x1",
      "cumulativeGasUsed": "0x142b1cb",
      "logs": [
        {
          "address": "0x1c7d4b196cb0c7b01d743fbc6116a902379c7238",
          "topics": [
            "0x8c5be1e5ebec7d5bd14f71427d1e84f3dd0314c0f7b2291e5b200ac8c7c3b925",
            "0x000000000000000000000000d2c2011d8c700094712c43435d16e3a9703e7f96",
            "0x000000000000000000000000dd0cef363cd9873a793b611812cfc712b9c70db8"
          ],
          "data": "0x00000000000000000000000000000000000000000000000000000000000186a0",
          "blockHash": "0xbb7d8390c7d7567e7c62457c526a8b781580365af3bfb3264fce34cb8972f168",
          "blockNumber": "0x7429a3",
          "transactionHash": "0x0833ee92a7f7639445f6f48260d0b1219474acd4503c6f47688ce718a196dd47",
          "transactionIndex": "0x54",
          "logIndex": "0x12d",
          "removed": false
        }
      ],
      "logsBloom": "0x00000000000000000000000000000000000000000000000000000000000200000000000000000000000000000000000000000000000000000000000000200000000000000000000000000000000000000000000008000040000000000000000000000000000000000000000000000000000000400000000000000000000000000000000000100000000010000000000000000000000000000000000000000000021000000000000000000000000000000000000000000000000000000000000000000000000000000000000000000000000000000000000000010000000000000010000000000000000010000000000000000000000000000000000000000000",
      "type": "0x2",
      "transactionHash": "0x0833ee92a7f7639445f6f48260d0b1219474acd4503c6f47688ce718a196dd47",
      "transactionIndex": "0x54",
      "blockHash": "0xbb7d8390c7d7567e7c62457c526a8b781580365af3bfb3264fce34cb8972f168",
      "blockNumber": "0x7429a3",
      "gasUsed": "0xd88d",
      "effectiveGasPrice": "0x834e0d4b",
      "from": "0xd2c2011d8c700094712c43435d16e3a9703e7f96",
      "to": "0x1c7d4b196cb0c7b01d743fbc6116a902379c7238",
      "contractAddress": null
    },
    {
      "status": "0x1",
      "cumulativeGasUsed": "0x14618ad",
      "logs": [
        {
          "address": "0x1c7d4b196cb0c7b01d743fbc6116a902379c7238",
          "topics": [
            "0xddf252ad1be2c89b69c2b068fc378daa952ba7f163c4a11628f55a4df523b3ef",
            "0x000000000000000000000000d2c2011d8c700094712c43435d16e3a9703e7f96",
            "0x000000000000000000000000dd0cef363cd9873a793b611812cfc712b9c70db8"
          ],
          "data": "0x00000000000000000000000000000000000000000000000000000000000186a0",
          "blockHash": "0xbb7d8390c7d7567e7c62457c526a8b781580365af3bfb3264fce34cb8972f168",
          "blockNumber": "0x7429a3",
          "transactionHash": "0x4b46f563606918ab9cba6af3ac920658a26bf336857436a221cd0b92f6c4be45",
          "transactionIndex": "0x55",
          "logIndex": "0x12e",
          "removed": false
        },
        {
          "address": "0xdd0cef363cd9873a793b611812cfc712b9c70db8",
          "topics": [
            "0x82c06dc461a08b46213483cee74f121f088a24b837dfa3976a0a9d9d5fc385ca",
            "0x000000000000000000000000d2c2011d8c700094712c43435d16e3a9703e7f96"
          ],
          "data": "0x0000000000000000000000000000000000000000000000000000000000000002000000000000000000000000000000000000000000000000000000000000000000000000000000000000000000000000000000000000000000000000000186a000000000000000000000000000000000000000000000000000000000000027100000000000000000000000006e6ad3e15a255a1fafbf19c2ec2426147071ca0c000000000000000000000000000000000000000000000000000000000000000100000000000000000000000000000000000000000000000000000000679d3e2c",
          "blockHash": "0xbb7d8390c7d7567e7c62457c526a8b781580365af3bfb3264fce34cb8972f168",
          "blockNumber": "0x7429a3",
          "transactionHash": "0x4b46f563606918ab9cba6af3ac920658a26bf336857436a221cd0b92f6c4be45",
          "transactionIndex": "0x55",
          "logIndex": "0x12f",
          "removed": false
        }
      ],
      "logsBloom": "0x00000000000000000000000000000000000000000000000000000000000200000000000000000000000000000000000000000000000000000000000000000000000000000000000000000008000000000000000008000040000000000000000000000000000000000000000000000000000000400000000000000010000000000000200000100000000010000000000000000000000000000000000000000000001000000000000000000010000000000000000000000000000000000000000000000002000000008000000000000000000000000000000000010000000000000080000000000000000010000000000000000040000000000000000000008000",
      "type": "0x2",
      "transactionHash": "0x4b46f563606918ab9cba6af3ac920658a26bf336857436a221cd0b92f6c4be45",
      "transactionIndex": "0x55",
      "blockHash": "0xbb7d8390c7d7567e7c62457c526a8b781580365af3bfb3264fce34cb8972f168",
      "blockNumber": "0x7429a3",
      "gasUsed": "0x366e2",
      "effectiveGasPrice": "0x834e0d4b",
      "from": "0xd2c2011d8c700094712c43435d16e3a9703e7f96",
      "to": "0xdd0cef363cd9873a793b611812cfc712b9c70db8",
      "contractAddress": null
    }
  ],
  "libraries": [],
  "pending": [],
  "returns": {},
  "timestamp": 1738358053,
  "chain": 11155111,
  "commit": "63517b3"
}