{
  "transactions": [
    {
      "hash": "0x45fe690cefa9942fe6533e7aa51e2fd99cae34f7005d6bbf20941d50ef0f60fd",
      "transactionType": "CALL",
      "contractName": null,
      "contractAddress": "0x1c7d4b196cb0c7b01d743fbc6116a902379c7238",
      "function": "approve(address,uint256)",
      "arguments": [
        "0xa27D85405FA73CD2FFCAE32A30E5c5cE35d5c56a",
        "100000"
      ],
      "transaction": {
        "from": "0x4d7233cab735078318ac948b1400fbe660048830",
        "to": "0x1c7d4b196cb0c7b01d743fbc6116a902379c7238",
        "gas": "0xcb04",
        "value": "0x0",
        "input": "0x095ea7b3000000000000000000000000a27d85405fa73cd2ffcae32a30e5c5ce35d5c56a00000000000000000000000000000000000000000000000000000000000186a0",
        "nonce": "0x45",
        "chainId": "0xaa36a7"
      },
      "additionalContracts": [],
      "isFixedGasLimit": false
    },
    {
      "hash": "0xec2d6f2e3a69670ca4f7938b0920cab831184c6e7ff208da0eca113fda419cab",
      "transactionType": "CALL",
      "contractName": null,
      "contractAddress": "0xa27d85405fa73cd2ffcae32a30e5c5ce35d5c56a",
      "function": "createOptionPut(uint256,uint256,uint256,address,uint256)",
      "arguments": [
        "100000",
        "10000",
        "1738360248",
        "0x6e6aD3E15a255A1fAfbF19C2EC2426147071CA0C",
        "1"
      ],
      "transaction": {
        "from": "0x4d7233cab735078318ac948b1400fbe660048830",
        "to": "0xa27d85405fa73cd2ffcae32a30e5c5ce35d5c56a",
        "gas": "0x4f989",
        "value": "0x0",
        "input": "0x3c630ccf00000000000000000000000000000000000000000000000000000000000186a0000000000000000000000000000000000000000000000000000000000000271000000000000000000000000000000000000000000000000000000000679d45b80000000000000000000000006e6ad3e15a255a1fafbf19c2ec2426147071ca0c0000000000000000000000000000000000000000000000000000000000000001",
        "nonce": "0x46",
        "chainId": "0xaa36a7"
      },
      "additionalContracts": [],
      "isFixedGasLimit": false
    }
  ],
  "receipts": [
    {
      "status": "0x1",
      "cumulativeGasUsed": "0x4dda81",
      "logs": [
        {
          "address": "0x1c7d4b196cb0c7b01d743fbc6116a902379c7238",
          "topics": [
            "0x8c5be1e5ebec7d5bd14f71427d1e84f3dd0314c0f7b2291e5b200ac8c7c3b925",
            "0x0000000000000000000000004d7233cab735078318ac948b1400fbe660048830",
            "0x000000000000000000000000a27d85405fa73cd2ffcae32a30e5c5ce35d5c56a"
          ],
          "data": "0x00000000000000000000000000000000000000000000000000000000000186a0",
          "blockHash": "0xc2e026eaf8df083e15f1d34e506de2cbb886f82a0cd29523ee950a5cfc9fc9d0",
          "blockNumber": "0x742a41",
          "transactionHash": "0x45fe690cefa9942fe6533e7aa51e2fd99cae34f7005d6bbf20941d50ef0f60fd",
          "transactionIndex": "0x4d",
          "logIndex": "0x52",
          "removed": false
        }
      ],
      "logsBloom": "0x00000100000000000000000000000000000000000000000000000000000200000000000000000000000000000000000000000000000000000000000000200000000000000000000000000000000000000000000000000000000000000000000000000000000000000000000000000000008000008000000000000000000000000000000000100000000000000000000000000000000000000000000010000000020000000000000000000000000000000000000000000000000000000000000000008000000000000000000000000000000000000000000000000000000000000010000000000000000090000000000000000000000000000000000000000000",
      "type": "0x2",
      "transactionHash": "0x45fe690cefa9942fe6533e7aa51e2fd99cae34f7005d6bbf20941d50ef0f60fd",
      "transactionIndex": "0x4d",
      "blockHash": "0xc2e026eaf8df083e15f1d34e506de2cbb886f82a0cd29523ee950a5cfc9fc9d0",
      "blockNumber": "0x742a41",
      "gasUsed": "0x8ad1",
      "effectiveGasPrice": "0x78edcdd6",
      "from": "0x4d7233cab735078318ac948b1400fbe660048830",
      "to": "0x1c7d4b196cb0c7b01d743fbc6116a902379c7238",
      "contractAddress": null
    },
    {
      "status": "0x1",
      "cumulativeGasUsed": "0x517486",
      "logs": [
        {
          "address": "0x1c7d4b196cb0c7b01d743fbc6116a902379c7238",
          "topics": [
            "0xddf252ad1be2c89b69c2b068fc378daa952ba7f163c4a11628f55a4df523b3ef",
            "0x0000000000000000000000004d7233cab735078318ac948b1400fbe660048830",
            "0x000000000000000000000000a27d85405fa73cd2ffcae32a30e5c5ce35d5c56a"
          ],
          "data": "0x00000000000000000000000000000000000000000000000000000000000186a0",
          "blockHash": "0xc2e026eaf8df083e15f1d34e506de2cbb886f82a0cd29523ee950a5cfc9fc9d0",
          "blockNumber": "0x742a41",
          "transactionHash": "0xec2d6f2e3a69670ca4f7938b0920cab831184c6e7ff208da0eca113fda419cab",
          "transactionIndex": "0x4e",
          "logIndex": "0x53",
          "removed": false
        },
        {
          "address": "0xa27d85405fa73cd2ffcae32a30e5c5ce35d5c56a",
          "topics": [
            "0x82c06dc461a08b46213483cee74f121f088a24b837dfa3976a0a9d9d5fc385ca",
            "0x0000000000000000000000004d7233cab735078318ac948b1400fbe660048830"
          ],
          "data": "0x0000000000000000000000000000000000000000000000000000000000000000000000000000000000000000000000000000000000000000000000000000000000000000000000000000000000000000000000000000000000000000000186a000000000000000000000000000000000000000000000000000000000000027100000000000000000000000006e6ad3e15a255a1fafbf19c2ec2426147071ca0c000000000000000000000000000000000000000000000000000000000000000100000000000000000000000000000000000000000000000000000000679d45b8",
          "blockHash": "0xc2e026eaf8df083e15f1d34e506de2cbb886f82a0cd29523ee950a5cfc9fc9d0",
          "blockNumber": "0x742a41",
          "transactionHash": "0xec2d6f2e3a69670ca4f7938b0920cab831184c6e7ff208da0eca113fda419cab",
          "transactionIndex": "0x4e",
          "logIndex": "0x54",
          "removed": false
        }
      ],
      "logsBloom": "0x0000010000000000000000000000000000000000000000000000000000020000000000000000000000000000000000000000000000000400000000000000000000000000000000000000000800000000000000000000000000000000000000000000000000000000000000000000000000800000a000000000000010000000000000200000100000000000000000000000000000000000000000000010000000000000000000000000000000000000000000000000000000000000000000000000008002000000000000000000000000000000000000000000008000000000000000000000000000000090000000000000000040000000000000000000008000",
      "type": "0x2",
      "transactionHash": "0xec2d6f2e3a69670ca4f7938b0920cab831184c6e7ff208da0eca113fda419cab",
      "transactionIndex": "0x4e",
      "blockHash": "0xc2e026eaf8df083e15f1d34e506de2cbb886f82a0cd29523ee950a5cfc9fc9d0",
      "blockNumber": "0x742a41",
      "gasUsed": "0x39a05",
      "effectiveGasPrice": "0x78edcdd6",
      "from": "0x4d7233cab735078318ac948b1400fbe660048830",
      "to": "0xa27d85405fa73cd2ffcae32a30e5c5ce35d5c56a",
      "contractAddress": null
    }
  ],
  "libraries": [],
  "pending": [],
  "returns": {},
  "timestamp": 1738359986,
  "chain": 11155111,
  "commit": "4ff3092"
}