{
  "transactions": [
    {
      "hash": "0x75ec662294cb958aae4ba1ea21edb75a350495e57233da5f49fa48c04f601b29",
      "transactionType": "CALL",
      "contractName": null,
      "contractAddress": "0x6e6ad3e15a255a1fafbf19c2ec2426147071ca0c",
      "function": "approve(address,uint256)",
      "arguments": [
        "0xdD0CeF363CD9873a793b611812cfc712b9c70DB8",
        "1"
      ],
      "transaction": {
        "from": "0x4d7233cab735078318ac948b1400fbe660048830",
        "to": "0x6e6ad3e15a255a1fafbf19c2ec2426147071ca0c",
        "gas": "0x108ac",
        "value": "0x0",
        "input": "0x095ea7b3000000000000000000000000dd0cef363cd9873a793b611812cfc712b9c70db80000000000000000000000000000000000000000000000000000000000000001",
        "nonce": "0x3b",
        "chainId": "0xaa36a7"
      },
      "additionalContracts": [],
      "isFixedGasLimit": false
    },
    {
      "hash": "0x522d3f9d3e15632985ed98ef80ee444a2d8492bbdc6eaa29c93147f352ea99dc",
      "transactionType": "CALL",
      "contractName": null,
      "contractAddress": "0xdd0cef363cd9873a793b611812cfc712b9c70db8",
      "function": "sendAssetToContract(uint256)",
      "arguments": [
        "0"
      ],
      "transaction": {
        "from": "0x4d7233cab735078318ac948b1400fbe660048830",
        "to": "0xdd0cef363cd9873a793b611812cfc712b9c70db8",
        "gas": "0x1889e",
        "value": "0x0",
        "input": "0x126c09330000000000000000000000000000000000000000000000000000000000000000",
        "nonce": "0x3c",
        "chainId": "0xaa36a7"
      },
      "additionalContracts": [],
      "isFixedGasLimit": false
    }
  ],
  "receipts": [
    {
      "status": "0x1",
      "cumulativeGasUsed": "0x19b7d6a",
      "logs": [
        {
          "address": "0x6e6ad3e15a255a1fafbf19c2ec2426147071ca0c",
          "topics": [
            "0x8c5be1e5ebec7d5bd14f71427d1e84f3dd0314c0f7b2291e5b200ac8c7c3b925",
            "0x0000000000000000000000004d7233cab735078318ac948b1400fbe660048830",
            "0x000000000000000000000000dd0cef363cd9873a793b611812cfc712b9c70db8"
          ],
          "data": "0x0000000000000000000000000000000000000000000000000000000000000001",
          "blockHash": "0x054f6f7dac2dbd2c12748b398841311331a4ac5a9d0d9571246a8752ad5d4422",
          "blockNumber": "0x7422e7",
          "transactionHash": "0x75ec662294cb958aae4ba1ea21edb75a350495e57233da5f49fa48c04f601b29",
          "transactionIndex": "0xa3",
          "logIndex": "0x1a0",
          "removed": false
        }
      ],
      "logsBloom": "0x00000000000000000000000000000000000000000000000000000000000000000000000000000000000000000000000000000002000000000000000000200000000000000000000000000000000000000000000000000040000000000000000000000000000000000000000000000000000000000000000000000000000000000000000000000000000010000004000000000000000000000000000010000000020000000000000000000000000000000000000000000000000000000000000000008000000000000000000200000000000000000000000000010000000000000010000000000000000080000000000000000000000000000000000000000000",
      "type": "0x2",
      "transactionHash": "0x75ec662294cb958aae4ba1ea21edb75a350495e57233da5f49fa48c04f601b29",
      "transactionIndex": "0xa3",
      "blockHash": "0x054f6f7dac2dbd2c12748b398841311331a4ac5a9d0d9571246a8752ad5d4422",
      "blockNumber": "0x7422e7",
      "gasUsed": "0xb4f9",
      "effectiveGasPrice": "0x1b174a7d9",
      "from": "0x4d7233cab735078318ac948b1400fbe660048830",
      "to": "0x6e6ad3e15a255a1fafbf19c2ec2426147071ca0c",
      "contractAddress": null
    },
    {
      "status": "0x1",
      "cumulativeGasUsed": "0x19c99aa",
      "logs": [
        {
          "address": "0x6e6ad3e15a255a1fafbf19c2ec2426147071ca0c",
          "topics": [
            "0xddf252ad1be2c89b69c2b068fc378daa952ba7f163c4a11628f55a4df523b3ef",
            "0x0000000000000000000000004d7233cab735078318ac948b1400fbe660048830",
            "0x000000000000000000000000dd0cef363cd9873a793b611812cfc712b9c70db8"
          ],
          "data": "0x0000000000000000000000000000000000000000000000000000000000000001",
          "blockHash": "0x054f6f7dac2dbd2c12748b398841311331a4ac5a9d0d9571246a8752ad5d4422",
          "blockNumber": "0x7422e7",
          "transactionHash": "0x522d3f9d3e15632985ed98ef80ee444a2d8492bbdc6eaa29c93147f352ea99dc",
          "transactionIndex": "0xa4",
          "logIndex": "0x1a1",
          "removed": false
        },
        {
          "address": "0xdd0cef363cd9873a793b611812cfc712b9c70db8",
          "topics": [
            "0x88b9a00cc7673c335319f05c48e76ac7244e93be048bee1a47ce70ff664a4a8c",
            "0x0000000000000000000000004d7233cab735078318ac948b1400fbe660048830"
          ],
          "data": "0x0000000000000000000000000000000000000000000000000000000000000000",
          "blockHash": "0x054f6f7dac2dbd2c12748b398841311331a4ac5a9d0d9571246a8752ad5d4422",
          "blockNumber": "0x7422e7",
          "transactionHash": "0x522d3f9d3e15632985ed98ef80ee444a2d8492bbdc6eaa29c93147f352ea99dc",
          "transactionIndex": "0xa4",
          "logIndex": "0x1a2",
          "removed": false
        }
      ],
      "logsBloom": "0x00000000000000000000000000000000000000000000000000000000000000020000000000000000000000000000000000000002000000000000000000000000000000000000000000000008000000000000000000000040000000000000000000000000000000000000000000000000000000000000000000000010000000000000000000000000000010100004000000000000000000000000000010000000008000000000000000000010000000000000000000000000000000000000000000008002000000008000000200000000000000000000000000010000000000000080000000000000000080000000000000000000000000000000000000000000",
      "type": "0x2",
      "transactionHash": "0x522d3f9d3e15632985ed98ef80ee444a2d8492bbdc6eaa29c93147f352ea99dc",
      "transactionIndex": "0xa4",
      "blockHash": "0x054f6f7dac2dbd2c12748b398841311331a4ac5a9d0d9571246a8752ad5d4422",
      "blockNumber": "0x7422e7",
      "gasUsed": "0x11c40",
      "effectiveGasPrice": "0x1b174a7d9",
      "from": "0x4d7233cab735078318ac948b1400fbe660048830",
      "to": "0xdd0cef363cd9873a793b611812cfc712b9c70db8",
      "contractAddress": null
    }
  ],
  "libraries": [],
  "pending": [],
  "returns": {},
  "timestamp": 1738336693,
  "chain": 11155111,
  "commit": "dc87445"
}