{
  "transactions": [
    {
      "hash": "0x99e638623d4271b719cac92d7f2a40491abb61852cc59bd32d82e13c26a34ee3",
      "transactionType": "CALL",
      "contractName": null,
      "contractAddress": "0x1c7d4b196cb0c7b01d743fbc6116a902379c7238",
      "function": "approve(address,uint256)",
      "arguments": [
        "0xdD0CeF363CD9873a793b611812cfc712b9c70DB8",
        "10000"
      ],
      "transaction": {
        "from": "0x4d7233cab735078318ac948b1400fbe660048830",
        "to": "0x1c7d4b196cb0c7b01d743fbc6116a902379c7238",
        "gas": "0x13ca2",
        "value": "0x0",
        "input": "0x095ea7b3000000000000000000000000dd0cef363cd9873a793b611812cfc712b9c70db80000000000000000000000000000000000000000000000000000000000002710",
        "nonce": "0x3f",
        "chainId": "0xaa36a7"
      },
      "additionalContracts": [],
      "isFixedGasLimit": false
    },
    {
      "hash": "0x016cea45a93cb3a55a91965e00bbe621eb094e5e94d1a448ae6851db25017fbf",
      "transactionType": "CALL",
      "contractName": null,
      "contractAddress": "0xdd0cef363cd9873a793b611812cfc712b9c70db8",
      "function": "buyOption(uint256)",
      "arguments": [
        "2"
      ],
      "transaction": {
        "from": "0x4d7233cab735078318ac948b1400fbe660048830",
        "to": "0xdd0cef363cd9873a793b611812cfc712b9c70db8",
        "gas": "0x1f630",
        "value": "0x0",
        "input": "0xfba225b90000000000000000000000000000000000000000000000000000000000000002",
        "nonce": "0x40",
        "chainId": "0xaa36a7"
      },
      "additionalContracts": [],
      "isFixedGasLimit": false
    },
    {
      "hash": "0xf1dc5f03dc11d6e48027b5d6768d72fe0355bdb58f4dbfc19fbcb7892ea7a7ee",
      "transactionType": "CALL",
      "contractName": null,
      "contractAddress": "0x6e6ad3e15a255a1fafbf19c2ec2426147071ca0c",
      "function": "approve(address,uint256)",
      "arguments": [
        "0xdD0CeF363CD9873a793b611812cfc712b9c70DB8",
        "1"
      ],
      "transaction": {
        "from": "0x4d7233cab735078318ac948b1400fbe660048830",
        "to": "0x6e6ad3e15a255a1fafbf19c2ec2426147071ca0c",
        "gas": "0x108ac",
        "value": "0x0",
        "input": "0x095ea7b3000000000000000000000000dd0cef363cd9873a793b611812cfc712b9c70db80000000000000000000000000000000000000000000000000000000000000001",
        "nonce": "0x41",
        "chainId": "0xaa36a7"
      },
      "additionalContracts": [],
      "isFixedGasLimit": false
    },
    {
      "hash": "0xdad75ce6b127bbb4edd0ae7529a8f24c7c040cffe405fb55fc491e52c9d0284b",
      "transactionType": "CALL",
      "contractName": null,
      "contractAddress": "0xdd0cef363cd9873a793b611812cfc712b9c70db8",
      "function": "sendAssetToContract(uint256)",
      "arguments": [
        "2"
      ],
      "transaction": {
        "from": "0x4d7233cab735078318ac948b1400fbe660048830",
        "to": "0xdd0cef363cd9873a793b611812cfc712b9c70db8",
        "gas": "0x12c6c",
        "value": "0x0",
        "input": "0x126c09330000000000000000000000000000000000000000000000000000000000000002",
        "nonce": "0x42",
        "chainId": "0xaa36a7"
      },
      "additionalContracts": [],
      "isFixedGasLimit": false
    }
  ],
  "receipts": [
    {
      "status": "0x1",
      "cumulativeGasUsed": "0xa04472",
      "logs": [
        {
          "address": "0x1c7d4b196cb0c7b01d743fbc6116a902379c7238",
          "topics": [
            "0x8c5be1e5ebec7d5bd14f71427d1e84f3dd0314c0f7b2291e5b200ac8c7c3b925",
            "0x0000000000000000000000004d7233cab735078318ac948b1400fbe660048830",
            "0x000000000000000000000000dd0cef363cd9873a793b611812cfc712b9c70db8"
          ],
          "data": "0x0000000000000000000000000000000000000000000000000000000000002710",
          "blockHash": "0x990d255512a814cde716bf70352df1808ce15991b28177098aed8226f138e94c",
          "blockNumber": "0x7429b0",
          "transactionHash": "0x99e638623d4271b719cac92d7f2a40491abb61852cc59bd32d82e13c26a34ee3",
          "transactionIndex": "0x63",
          "logIndex": "0x96",
          "removed": false
        }
      ],
      "logsBloom": "0x00000000000000000000000000000000000000000000000000000000000200000000000000000000000000000000000000000000000000000000000000200000000000000000000000000000000000000000000000000040000000000000000000000000000000000000000000000000000000000000000000000000000000000000000000100000000010000000000000000000000000000000000010000000020000000000000000000000000000000000000000000000000000000000000000008000000000000000000000000000000000000000000000010000000000000010000000000000000090000000000000000000000000000000000000000000",
      "type": "0x2",
      "transactionHash": "0x99e638623d4271b719cac92d7f2a40491abb61852cc59bd32d82e13c26a34ee3",
      "transactionIndex": "0x63",
      "blockHash": "0x990d255512a814cde716bf70352df1808ce15991b28177098aed8226f138e94c",
      "blockNumber": "0x7429b0",
      "gasUsed": "0xd881",
      "effectiveGasPrice": "0x7a054bed",
      "from": "0x4d7233cab735078318ac948b1400fbe660048830",
      "to": "0x1c7d4b196cb0c7b01d743fbc6116a902379c7238",
      "contractAddress": null
    },
    {
      "status": "0x1",
      "cumulativeGasUsed": "0xa19bd3",
      "logs": [
        {
          "address": "0x1c7d4b196cb0c7b01d743fbc6116a902379c7238",
          "topics": [
            "0xddf252ad1be2c89b69c2b068fc378daa952ba7f163c4a11628f55a4df523b3ef",
            "0x0000000000000000000000004d7233cab735078318ac948b1400fbe660048830",
            "0x000000000000000000000000d2c2011d8c700094712c43435d16e3a9703e7f96"
          ],
          "data": "0x0000000000000000000000000000000000000000000000000000000000002710",
          "blockHash": "0x990d255512a814cde716bf70352df1808ce15991b28177098aed8226f138e94c",
          "blockNumber": "0x7429b0",
          "transactionHash": "0x016cea45a93cb3a55a91965e00bbe621eb094e5e94d1a448ae6851db25017fbf",
          "transactionIndex": "0x64",
          "logIndex": "0x97",
          "removed": false
        },
        {
          "address": "0xdd0cef363cd9873a793b611812cfc712b9c70db8",
          "topics": [
            "0xf818b60a04a5914080e463ac568206f291380303c88fc049b89d9acfa93139d2",
            "0x0000000000000000000000004d7233cab735078318ac948b1400fbe660048830"
          ],
          "data": "0x0000000000000000000000000000000000000000000000000000000000000002",
          "blockHash": "0x990d255512a814cde716bf70352df1808ce15991b28177098aed8226f138e94c",
          "blockNumber": "0x7429b0",
          "transactionHash": "0x016cea45a93cb3a55a91965e00bbe621eb094e5e94d1a448ae6851db25017fbf",
          "transactionIndex": "0x64",
          "logIndex": "0x98",
          "removed": false
        }
      ],
      "logsBloom": "0x00000000000000000000000000000000000000800000000000000000000200000000000000000000000000000000000000000000000000000800000000000000000000000000000000000008000004000000000008000000000000000000000000000000000000000000000000000000000000400000000000000010000000000000000000100000000000000000000000000000000000000000000010000000001000000000000000000010000000000000000000000000000000000000000000008002000000008000000000000000000000000000000000000000000000000080000000000000000090000000000000000000000000000000000000000000",
      "type": "0x2",
      "transactionHash": "0x016cea45a93cb3a55a91965e00bbe621eb094e5e94d1a448ae6851db25017fbf",
      "transactionIndex": "0x64",
      "blockHash": "0x990d255512a814cde716bf70352df1808ce15991b28177098aed8226f138e94c",
      "blockNumber": "0x7429b0",
      "gasUsed": "0x15761",
      "effectiveGasPrice": "0x7a054bed",
      "from": "0x4d7233cab735078318ac948b1400fbe660048830",
      "to": "0xdd0cef363cd9873a793b611812cfc712b9c70db8",
      "contractAddress": null
    },
    {
      "status": "0x1",
      "cumulativeGasUsed": "0xa250cc",
      "logs": [
        {
          "address": "0x6e6ad3e15a255a1fafbf19c2ec2426147071ca0c",
          "topics": [
            "0x8c5be1e5ebec7d5bd14f71427d1e84f3dd0314c0f7b2291e5b200ac8c7c3b925",
            "0x0000000000000000000000004d7233cab735078318ac948b1400fbe660048830",
            "0x000000000000000000000000dd0cef363cd9873a793b611812cfc712b9c70db8"
          ],
          "data": "0x0000000000000000000000000000000000000000000000000000000000000001",
          "blockHash": "0x990d255512a814cde716bf70352df1808ce15991b28177098aed8226f138e94c",
          "blockNumber": "0x7429b0",
          "transactionHash": "0xf1dc5f03dc11d6e48027b5d6768d72fe0355bdb58f4dbfc19fbcb7892ea7a7ee",
          "transactionIndex": "0x65",
          "logIndex": "0x99",
          "removed": false
        }
      ],
      "logsBloom": "0x00000000000000000000000000000000000000000000000000000000000000000000000000000000000000000000000000000002000000000000000000200000000000000000000000000000000000000000000000000040000000000000000000000000000000000000000000000000000000000000000000000000000000000000000000000000000010000004000000000000000000000000000010000000020000000000000000000000000000000000000000000000000000000000000000008000000000000000000200000000000000000000000000010000000000000010000000000000000080000000000000000000000000000000000000000000",
      "type": "0x2",
      "transactionHash": "0xf1dc5f03dc11d6e48027b5d6768d72fe0355bdb58f4dbfc19fbcb7892ea7a7ee",
      "transactionIndex": "0x65",
      "blockHash": "0x990d255512a814cde716bf70352df1808ce15991b28177098aed8226f138e94c",
      "blockNumber": "0x7429b0",
      "gasUsed": "0xb4f9",
      "effectiveGasPrice": "0x7a054bed",
      "from": "0x4d7233cab735078318ac948b1400fbe660048830",
      "to": "0x6e6ad3e15a255a1fafbf19c2ec2426147071ca0c",
      "contractAddress": null
    },
    {
      "status": "0x1",
      "cumulativeGasUsed": "0xa32a4c",
      "logs": [
        {
          "address": "0x6e6ad3e15a255a1fafbf19c2ec2426147071ca0c",
          "topics": [
            "0xddf252ad1be2c89b69c2b068fc378daa952ba7f163c4a11628f55a4df523b3ef",
            "0x0000000000000000000000004d7233cab735078318ac948b1400fbe660048830",
            "0x000000000000000000000000dd0cef363cd9873a793b611812cfc712b9c70db8"
          ],
          "data": "0x0000000000000000000000000000000000000000000000000000000000000001",
          "blockHash": "0x990d255512a814cde716bf70352df1808ce15991b28177098aed8226f138e94c",
          "blockNumber": "0x7429b0",
          "transactionHash": "0xdad75ce6b127bbb4edd0ae7529a8f24c7c040cffe405fb55fc491e52c9d0284b",
          "transactionIndex": "0x66",
          "logIndex": "0x9a",
          "removed": false
        },
        {
          "address": "0xdd0cef363cd9873a793b611812cfc712b9c70db8",
          "topics": [
            "0x88b9a00cc7673c335319f05c48e76ac7244e93be048bee1a47ce70ff664a4a8c",
            "0x0000000000000000000000004d7233cab735078318ac948b1400fbe660048830"
          ],
          "data": "0x0000000000000000000000000000000000000000000000000000000000000002",
          "blockHash": "0x990d255512a814cde716bf70352df1808ce15991b28177098aed8226f138e94c",
          "blockNumber": "0x7429b0",
          "transactionHash": "0xdad75ce6b127bbb4edd0ae7529a8f24c7c040cffe405fb55fc491e52c9d0284b",
          "transactionIndex": "0x66",
          "logIndex": "0x9b",
          "removed": false
        }
      ],
      "logsBloom": "0x00000000000000000000000000000000000000000000000000000000000000020000000000000000000000000000000000000002000000000000000000000000000000000000000000000008000000000000000000000040000000000000000000000000000000000000000000000000000000000000000000000010000000000000000000000000000010100004000000000000000000000000000010000000008000000000000000000010000000000000000000000000000000000000000000008002000000008000000200000000000000000000000000010000000000000080000000000000000080000000000000000000000000000000000000000000",
      "type": "0x2",
      "transactionHash": "0xdad75ce6b127bbb4edd0ae7529a8f24c7c040cffe405fb55fc491e52c9d0284b",
      "transactionIndex": "0x66",
      "blockHash": "0x990d255512a814cde716bf70352df1808ce15991b28177098aed8226f138e94c",
      "blockNumber": "0x7429b0",
      "gasUsed": "0xd980",
      "effectiveGasPrice": "0x7a054bed",
      "from": "0x4d7233cab735078318ac948b1400fbe660048830",
      "to": "0xdd0cef363cd9873a793b611812cfc712b9c70db8",
      "contractAddress": null
    }
  ],
  "libraries": [],
  "pending": [],
  "returns": {},
  "timestamp": 1738358210,
  "chain": 11155111,
  "commit": "63517b3"
}