{
  "transactions": [
    {
      "hash": "0x9449c4abac42cc92340b42c90d78aa7b0b99ad556890368ea26430f52fca805c",
      "transactionType": "CALL",
      "contractName": null,
      "contractAddress": "0x1c7d4b196cb0c7b01d743fbc6116a902379c7238",
      "function": "approve(address,uint256)",
      "arguments": [
        "0x48f9219Cc45aD25c14aaBedf70d12b37041Bb9db",
        "100000"
      ],
      "transaction": {
        "from": "0x4d7233cab735078318ac948b1400fbe660048830",
        "to": "0x1c7d4b196cb0c7b01d743fbc6116a902379c7238",
        "gas": "0xcb04",
        "value": "0x0",
        "input": "0x095ea7b300000000000000000000000048f9219cc45ad25c14aabedf70d12b37041bb9db00000000000000000000000000000000000000000000000000000000000186a0",
        "nonce": "0x4d",
        "chainId": "0xaa36a7"
      },
      "additionalContracts": [],
      "isFixedGasLimit": false
    },
    {
      "hash": "0x2dbea1b4765837c7f5139c19f87688cde6cb1326f7a18921fdbd8d167cbffee8",
      "transactionType": "CALL",
      "contractName": "OptionManager",
      "contractAddress": "0x48f9219cc45ad25c14aabedf70d12b37041bb9db",
      "function": "createOptionPut(uint256,uint256,uint256,address,uint256)",
      "arguments": [
        "100000",
        "10000",
        "1738401456",
        "0x6e6aD3E15a255A1fAfbF19C2EC2426147071CA0C",
        "1"
      ],
      "transaction": {
        "from": "0x4d7233cab735078318ac948b1400fbe660048830",
        "to": "0x48f9219cc45ad25c14aabedf70d12b37041bb9db",
        "gas": "0x4997e",
        "value": "0x0",
        "input": "0x3c630ccf00000000000000000000000000000000000000000000000000000000000186a0000000000000000000000000000000000000000000000000000000000000271000000000000000000000000000000000000000000000000000000000679de6b00000000000000000000000006e6ad3e15a255a1fafbf19c2ec2426147071ca0c0000000000000000000000000000000000000000000000000000000000000001",
        "nonce": "0x4e",
        "chainId": "0xaa36a7"
      },
      "additionalContracts": [],
      "isFixedGasLimit": false
    }
  ],
  "receipts": [
    {
      "status": "0x1",
      "cumulativeGasUsed": "0xf1b303",
      "logs": [
        {
          "address": "0x1c7d4b196cb0c7b01d743fbc6116a902379c7238",
          "topics": [
            "0x8c5be1e5ebec7d5bd14f71427d1e84f3dd0314c0f7b2291e5b200ac8c7c3b925",
            "0x0000000000000000000000004d7233cab735078318ac948b1400fbe660048830",
            "0x00000000000000000000000048f9219cc45ad25c14aabedf70d12b37041bb9db"
          ],
          "data": "0x00000000000000000000000000000000000000000000000000000000000186a0",
          "blockHash": "0xfff880b608acd32cf43c2afbef52a6f83df9e296ab66471e03566f96a2e3c03e",
          "blockNumber": "0x743745",
          "transactionHash": "0x9449c4abac42cc92340b42c90d78aa7b0b99ad556890368ea26430f52fca805c",
          "transactionIndex": "0x8d",
          "logIndex": "0xbf",
          "removed": false
        }
      ],
      "logsBloom": "0x00000000000000000000000000000000000000000000000000000000000200000000000000000000000000000000000000000000000000000000000000200000000000000000000000000000000000000000000000000000000000000000000000000000000000000000000000000000000000000000000000000000000000000000000000100000000000000000000000000000004000000000000010000000020000000000000000000000000000000000000000000000000000000000000000008000000000000000000000008000001000000000000000000000000000000010000000000000000090000000000000000000000000000000000000000000",
      "type": "0x2",
      "transactionHash": "0x9449c4abac42cc92340b42c90d78aa7b0b99ad556890368ea26430f52fca805c",
      "transactionIndex": "0x8d",
      "blockHash": "0xfff880b608acd32cf43c2afbef52a6f83df9e296ab66471e03566f96a2e3c03e",
      "blockNumber": "0x743745",
      "gasUsed": "0x8ad1",
      "effectiveGasPrice": "0xfadfbb2b",
      "from": "0x4d7233cab735078318ac948b1400fbe660048830",
      "to": "0x1c7d4b196cb0c7b01d743fbc6116a902379c7238",
      "contractAddress": null
    },
    {
      "status": "0x1",
      "cumulativeGasUsed": "0xf50780",
      "logs": [
        {
          "address": "0x1c7d4b196cb0c7b01d743fbc6116a902379c7238",
          "topics": [
            "0xddf252ad1be2c89b69c2b068fc378daa952ba7f163c4a11628f55a4df523b3ef",
            "0x0000000000000000000000004d7233cab735078318ac948b1400fbe660048830",
            "0x00000000000000000000000048f9219cc45ad25c14aabedf70d12b37041bb9db"
          ],
          "data": "0x00000000000000000000000000000000000000000000000000000000000186a0",
          "blockHash": "0xfff880b608acd32cf43c2afbef52a6f83df9e296ab66471e03566f96a2e3c03e",
          "blockNumber": "0x743745",
          "transactionHash": "0x2dbea1b4765837c7f5139c19f87688cde6cb1326f7a18921fdbd8d167cbffee8",
          "transactionIndex": "0x8e",
          "logIndex": "0xc0",
          "removed": false
        },
        {
          "address": "0x48f9219cc45ad25c14aabedf70d12b37041bb9db",
          "topics": [
            "0x82c06dc461a08b46213483cee74f121f088a24b837dfa3976a0a9d9d5fc385ca",
            "0x0000000000000000000000004d7233cab735078318ac948b1400fbe660048830"
          ],
          "data": "0x0000000000000000000000000000000000000000000000000000000000000003000000000000000000000000000000000000000000000000000000000000000000000000000000000000000000000000000000000000000000000000000186a000000000000000000000000000000000000000000000000000000000000027100000000000000000000000006e6ad3e15a255a1fafbf19c2ec2426147071ca0c000000000000000000000000000000000000000000000000000000000000000100000000000000000000000000000000000000000000000000000000679de6b0",
          "blockHash": "0xfff880b608acd32cf43c2afbef52a6f83df9e296ab66471e03566f96a2e3c03e",
          "blockNumber": "0x743745",
          "transactionHash": "0x2dbea1b4765837c7f5139c19f87688cde6cb1326f7a18921fdbd8d167cbffee8",
          "transactionIndex": "0x8e",
          "logIndex": "0xc1",
          "removed": false
        }
      ],
      "logsBloom": "0x00000000000000000000000000000000000000000000000000000000000200000000000000000000000000000000000000000000000000000000000000000000000000000000000000000008000000000000000000000000000000000000000000000000000000000000000000000000000000000000000000000010000000000000200000300000000000000000000000000000004800000000000010000000000000000000000000000000000000000000000000000000000000000000000000008002000000000000000000008000001000000000000000000000000000000000000000000008000090000000000000000040000000000000000000008000",
      "type": "0x2",
      "transactionHash": "0x2dbea1b4765837c7f5139c19f87688cde6cb1326f7a18921fdbd8d167cbffee8",
      "transactionIndex": "0x8e",
      "blockHash": "0xfff880b608acd32cf43c2afbef52a6f83df9e296ab66471e03566f96a2e3c03e",
      "blockNumber": "0x743745",
      "gasUsed": "0x3547d",
      "effectiveGasPrice": "0xfadfbb2b",
      "from": "0x4d7233cab735078318ac948b1400fbe660048830",
      "to": "0x48f9219cc45ad25c14aabedf70d12b37041bb9db",
      "contractAddress": null
    }
  ],
  "libraries": [],
  "pending": [],
  "returns": {},
  "timestamp": 1738401181,
  "chain": 11155111,
  "commit": "ebd54fd"
}