{
  "transactions": [
    {
      "hash": "0xc28c3395c5c38082fae5ea1cb6aa03571ac7f05a88760be3df2a0609892c0f89",
      "transactionType": "CALL",
      "contractName": null,
      "contractAddress": "0x1c7d4b196cb0c7b01d743fbc6116a902379c7238",
      "function": "approve(address,uint256)",
      "arguments": [
        "0xa27D85405FA73CD2FFCAE32A30E5c5cE35d5c56a",
        "10000"
      ],
      "transaction": {
        "from": "0xd2c2011d8c700094712c43435d16e3a9703e7f96",
        "to": "0x1c7d4b196cb0c7b01d743fbc6116a902379c7238",
        "gas": "0xbfac",
        "value": "0x0",
        "input": "0x095ea7b3000000000000000000000000a27d85405fa73cd2ffcae32a30e5c5ce35d5c56a0000000000000000000000000000000000000000000000000000000000002710",
        "nonce": "0x7",
        "chainId": "0xaa36a7"
      },
      "additionalContracts": [],
      "isFixedGasLimit": false
    },
    {
      "hash": "0xc711be60321aa7c20c50502a057f08292bea969add6511c3896dd2b7e4197945",
      "transactionType": "CALL",
      "contractName": null,
      "contractAddress": "0xa27d85405fa73cd2ffcae32a30e5c5ce35d5c56a",
      "function": "buyOption(uint256)",
      "arguments": [
        "0"
      ],
      "transaction": {
        "from": "0xd2c2011d8c700094712c43435d16e3a9703e7f96",
        "to": "0xa27d85405fa73cd2ffcae32a30e5c5ce35d5c56a",
        "gas": "0x1e268",
        "value": "0x0",
        "input": "0xfba225b90000000000000000000000000000000000000000000000000000000000000000",
        "nonce": "0x8",
        "chainId": "0xaa36a7"
      },
      "additionalContracts": [],
      "isFixedGasLimit": false
    }
  ],
  "receipts": [
    {
      "status": "0x1",
      "cumulativeGasUsed": "0x109869c",
      "logs": [
        {
          "address": "0x1c7d4b196cb0c7b01d743fbc6116a902379c7238",
          "topics": [
            "0x8c5be1e5ebec7d5bd14f71427d1e84f3dd0314c0f7b2291e5b200ac8c7c3b925",
            "0x000000000000000000000000d2c2011d8c700094712c43435d16e3a9703e7f96",
            "0x000000000000000000000000a27d85405fa73cd2ffcae32a30e5c5ce35d5c56a"
          ],
          "data": "0x0000000000000000000000000000000000000000000000000000000000002710",
          "blockHash": "0x9320b73c9ba6afbc9fb5c890f97ca67d0f78d57999c8ca25a486ae842fb9c198",
          "blockNumber": "0x742a4b",
          "transactionHash": "0xc28c3395c5c38082fae5ea1cb6aa03571ac7f05a88760be3df2a0609892c0f89",
          "transactionIndex": "0x69",
          "logIndex": "0x14c",
          "removed": false
        }
      ],
      "logsBloom": "0x00000100000000000000000000000000000000000000000000000000000200000000000000000000000000000000000000000000000000000000000000200000000000000000000000000000000000000000000008000000000000000000000000000000000000000000000000000000008000408000000000000000000000000000000000100000000000000000000000000000000000000000000000000000021000000000000000000000000000000000000000000000000000000000000000000000000000000000000000000000000000000000000000000000000000000010000000000000000010000000000000000000000000000000000000000000",
      "type": "0x2",
      "transactionHash": "0xc28c3395c5c38082fae5ea1cb6aa03571ac7f05a88760be3df2a0609892c0f89",
      "transactionIndex": "0x69",
      "blockHash": "0x9320b73c9ba6afbc9fb5c890f97ca67d0f78d57999c8ca25a486ae842fb9c198",
      "blockNumber": "0x742a4b",
      "gasUsed": "0x8ac5",
      "effectiveGasPrice": "0x675ebbc3",
      "from": "0xd2c2011d8c700094712c43435d16e3a9703e7f96",
      "to": "0x1c7d4b196cb0c7b01d743fbc6116a902379c7238",
      "contractAddress": null
    },
    {
      "status": "0x1",
      "cumulativeGasUsed": "0x1407bbf",
      "logs": [
        {
          "address": "0x1c7d4b196cb0c7b01d743fbc6116a902379c7238",
          "topics": [
            "0xddf252ad1be2c89b69c2b068fc378daa952ba7f163c4a11628f55a4df523b3ef",
            "0x000000000000000000000000d2c2011d8c700094712c43435d16e3a9703e7f96",
            "0x0000000000000000000000004d7233cab735078318ac948b1400fbe660048830"
          ],
          "data": "0x0000000000000000000000000000000000000000000000000000000000002710",
          "blockHash": "0x9320b73c9ba6afbc9fb5c890f97ca67d0f78d57999c8ca25a486ae842fb9c198",
          "blockNumber": "0x742a4b",
          "transactionHash": "0xc711be60321aa7c20c50502a057f08292bea969add6511c3896dd2b7e4197945",
          "transactionIndex": "0x74",
          "logIndex": "0x153",
          "removed": false
        },
        {
          "address": "0xa27d85405fa73cd2ffcae32a30e5c5ce35d5c56a",
          "topics": [
            "0xf818b60a04a5914080e463ac568206f291380303c88fc049b89d9acfa93139d2",
            "0x000000000000000000000000d2c2011d8c700094712c43435d16e3a9703e7f96"
          ],
          "data": "0x0000000000000000000000000000000000000000000000000000000000000000",
          "blockHash": "0x9320b73c9ba6afbc9fb5c890f97ca67d0f78d57999c8ca25a486ae842fb9c198",
          "blockNumber": "0x742a4b",
          "transactionHash": "0xc711be60321aa7c20c50502a057f08292bea969add6511c3896dd2b7e4197945",
          "transactionIndex": "0x74",
          "logIndex": "0x154",
          "removed": false
        }
      ],
      "logsBloom": "0x00000000000000000000000000000000000000800000000000000000000200000000000000000000000000000000000000000000000004000800000000000000000000000000000000000008000004000000000008000000000000000000000000000000000000000000000000000000000000402000000000000010000000000000000000100000000000000000000000000000000000000000000010000000001000000000000000000000000000000000000000000000000000000000000000008002000000000000000000000000000000000000000000008000000000000000000000000000000090000000000000000000000000000000000000000000",
      "type": "0x2",
      "transactionHash": "0xc711be60321aa7c20c50502a057f08292bea969add6511c3896dd2b7e4197945",
      "transactionIndex": "0x74",
      "blockHash": "0x9320b73c9ba6afbc9fb5c890f97ca67d0f78d57999c8ca25a486ae842fb9c198",
      "blockNumber": "0x742a4b",
      "gasUsed": "0x149da",
      "effectiveGasPrice": "0x675ebbc3",
      "from": "0xd2c2011d8c700094712c43435d16e3a9703e7f96",
      "to": "0xa27d85405fa73cd2ffcae32a30e5c5ce35d5c56a",
      "contractAddress": null
    }
  ],
  "libraries": [],
  "pending": [],
  "returns": {},
  "timestamp": 1738360116,
  "chain": 11155111,
  "commit": "4ff3092"
}