{
  "transactions": [
    {
      "hash": "0xa528139255412710160ef76947825c0b507703f27046f0d9e33f9bba1b47286a",
      "transactionType": "CALL",
      "contractName": null,
      "contractAddress": "0x1c7d4b196cb0c7b01d743fbc6116a902379c7238",
      "function": "approve(address,uint256)",
      "arguments": [
        "0xa27D85405FA73CD2FFCAE32A30E5c5cE35d5c56a",
        "100000"
      ],
      "transaction": {
        "from": "0x4d7233cab735078318ac948b1400fbe660048830",
        "to": "0x1c7d4b196cb0c7b01d743fbc6116a902379c7238",
        "gas": "0x12b1b",
        "value": "0x0",
        "input": "0x095ea7b3000000000000000000000000a27d85405fa73cd2ffcae32a30e5c5ce35d5c56a00000000000000000000000000000000000000000000000000000000000186a0",
        "nonce": "0x48",
        "chainId": "0xaa36a7"
      },
      "additionalContracts": [],
      "isFixedGasLimit": false
    },
    {
      "hash": "0x0309e6fdb2298c73dd375c03ba7c625ce4811701faab2b8002536bbd9370cd08",
      "transactionType": "CALL",
      "contractName": null,
      "contractAddress": "0xa27d85405fa73cd2ffcae32a30e5c5ce35d5c56a",
      "function": "createOptionPut(uint256,uint256,uint256,address,uint256)",
      "arguments": [
        "100000",
        "10000",
        "1738360800",
        "0x6e6aD3E15a255A1fAfbF19C2EC2426147071CA0C",
        "1"
      ],
      "transaction": {
        "from": "0x4d7233cab735078318ac948b1400fbe660048830",
        "to": "0xa27d85405fa73cd2ffcae32a30e5c5ce35d5c56a",
        "gas": "0x4e2c3",
        "value": "0x0",
        "input": "0x3c630ccf00000000000000000000000000000000000000000000000000000000000186a0000000000000000000000000000000000000000000000000000000000000271000000000000000000000000000000000000000000000000000000000679d47e00000000000000000000000006e6ad3e15a255a1fafbf19c2ec2426147071ca0c0000000000000000000000000000000000000000000000000000000000000001",
        "nonce": "0x49",
        "chainId": "0xaa36a7"
      },
      "additionalContracts": [],
      "isFixedGasLimit": false
    }
  ],
  "receipts": [
    {
      "status": "0x1",
      "cumulativeGasUsed": "0xce7ca2",
      "logs": [
        {
          "address": "0x1c7d4b196cb0c7b01d743fbc6116a902379c7238",
          "topics": [
            "0x8c5be1e5ebec7d5bd14f71427d1e84f3dd0314c0f7b2291e5b200ac8c7c3b925",
            "0x0000000000000000000000004d7233cab735078318ac948b1400fbe660048830",
            "0x000000000000000000000000a27d85405fa73cd2ffcae32a30e5c5ce35d5c56a"
          ],
          "data": "0x00000000000000000000000000000000000000000000000000000000000186a0",
          "blockHash": "0xea19b470563cf9b32f867da02698313e83419b786110a2653a601d0261055fda",
          "blockNumber": "0x742a6e",
          "transactionHash": "0xa528139255412710160ef76947825c0b507703f27046f0d9e33f9bba1b47286a",
          "transactionIndex": "0x48",
          "logIndex": "0x119",
          "removed": false
        }
      ],
      "logsBloom": "0x00000100000000000000000000000000000000000000000000000000000200000000000000000000000000000000000000000000000000000000000000200000000000000000000000000000000000000000000000000000000000000000000000000000000000000000000000000000008000008000000000000000000000000000000000100000000000000000000000000000000000000000000010000000020000000000000000000000000000000000000000000000000000000000000000008000000000000000000000000000000000000000000000000000000000000010000000000000000090000000000000000000000000000000000000000000",
      "type": "0x2",
      "transactionHash": "0xa528139255412710160ef76947825c0b507703f27046f0d9e33f9bba1b47286a",
      "transactionIndex": "0x48",
      "blockHash": "0xea19b470563cf9b32f867da02698313e83419b786110a2653a601d0261055fda",
      "blockNumber": "0x742a6e",
      "gasUsed": "0xd88d",
      "effectiveGasPrice": "0x7e09e367",
      "from": "0x4d7233cab735078318ac948b1400fbe660048830",
      "to": "0x1c7d4b196cb0c7b01d743fbc6116a902379c7238",
      "contractAddress": null
    },
    {
      "status": "0x1",
      "cumulativeGasUsed": "0xd1d3db",
      "logs": [
        {
          "address": "0x1c7d4b196cb0c7b01d743fbc6116a902379c7238",
          "topics": [
            "0xddf252ad1be2c89b69c2b068fc378daa952ba7f163c4a11628f55a4df523b3ef",
            "0x0000000000000000000000004d7233cab735078318ac948b1400fbe660048830",
            "0x000000000000000000000000a27d85405fa73cd2ffcae32a30e5c5ce35d5c56a"
          ],
          "data": "0x00000000000000000000000000000000000000000000000000000000000186a0",
          "blockHash": "0xea19b470563cf9b32f867da02698313e83419b786110a2653a601d0261055fda",
          "blockNumber": "0x742a6e",
          "transactionHash": "0x0309e6fdb2298c73dd375c03ba7c625ce4811701faab2b8002536bbd9370cd08",
          "transactionIndex": "0x49",
          "logIndex": "0x11a",
          "removed": false
        },
        {
          "address": "0xa27d85405fa73cd2ffcae32a30e5c5ce35d5c56a",
          "topics": [
            "0x82c06dc461a08b46213483cee74f121f088a24b837dfa3976a0a9d9d5fc385ca",
            "0x0000000000000000000000004d7233cab735078318ac948b1400fbe660048830"
          ],
          "data": "0x0000000000000000000000000000000000000000000000000000000000000001000000000000000000000000000000000000000000000000000000000000000000000000000000000000000000000000000000000000000000000000000186a000000000000000000000000000000000000000000000000000000000000027100000000000000000000000006e6ad3e15a255a1fafbf19c2ec2426147071ca0c000000000000000000000000000000000000000000000000000000000000000100000000000000000000000000000000000000000000000000000000679d47e0",
          "blockHash": "0xea19b470563cf9b32f867da02698313e83419b786110a2653a601d0261055fda",
          "blockNumber": "0x742a6e",
          "transactionHash": "0x0309e6fdb2298c73dd375c03ba7c625ce4811701faab2b8002536bbd9370cd08",
          "transactionIndex": "0x49",
          "logIndex": "0x11b",
          "removed": false
        }
      ],
      "logsBloom": "0x0000010000000000000000000000000000000000000000000000000000020000000000000000000000000000000000000000000000000400000000000000000000000000000000000000000800000000000000000000000000000000000000000000000000000000000000000000000000800000a000000000000010000000000000200000100000000000000000000000000000000000000000000010000000000000000000000000000000000000000000000000000000000000000000000000008002000000000000000000000000000000000000000000008000000000000000000000000000000090000000000000000040000000000000000000008000",
      "type": "0x2",
      "transactionHash": "0x0309e6fdb2298c73dd375c03ba7c625ce4811701faab2b8002536bbd9370cd08",
      "transactionIndex": "0x49",
      "blockHash": "0xea19b470563cf9b32f867da02698313e83419b786110a2653a601d0261055fda",
      "blockNumber": "0x742a6e",
      "gasUsed": "0x35739",
      "effectiveGasPrice": "0x7e09e367",
      "from": "0x4d7233cab735078318ac948b1400fbe660048830",
      "to": "0xa27d85405fa73cd2ffcae32a30e5c5ce35d5c56a",
      "contractAddress": null
    }
  ],
  "libraries": [],
  "pending": [],
  "returns": {},
  "timestamp": 1738360537,
  "chain": 11155111,
  "commit": "4ff3092"
}