{
  "transactions": [
    {
      "hash": "0xd7986881e7149b57995dc61e74011e0e4a5edc51ffb03c6c6f8d5dc60f3144d0",
      "transactionType": "CALL",
      "contractName": null,
      "contractAddress": "0x1c7d4b196cb0c7b01d743fbc6116a902379c7238",
      "function": "approve(address,uint256)",
      "arguments": [
        "0x48f9219Cc45aD25c14aaBedf70d12b37041Bb9db",
        "10000"
      ],
      "transaction": {
        "from": "0xd2c2011d8c700094712c43435d16e3a9703e7f96",
        "to": "0x1c7d4b196cb0c7b01d743fbc6116a902379c7238",
        "gas": "0x13ca2",
        "value": "0x0",
        "input": "0x095ea7b300000000000000000000000048f9219cc45ad25c14aabedf70d12b37041bb9db0000000000000000000000000000000000000000000000000000000000002710",
        "nonce": "0xd",
        "chainId": "0xaa36a7"
      },
      "additionalContracts": [],
      "isFixedGasLimit": false
    },
    {
      "hash": "0x99c32e6b526b80a6b7b87323f8f7aa3ba271900787f207922e3a2e0f43e8658f",
      "transactionType": "CALL",
      "contractName": "OptionManager",
      "contractAddress": "0x48f9219cc45ad25c14aabedf70d12b37041bb9db",
      "function": "buyOption(uint256)",
      "arguments": [
        "4"
      ],
      "transaction": {
        "from": "0xd2c2011d8c700094712c43435d16e3a9703e7f96",
        "to": "0x48f9219cc45ad25c14aabedf70d12b37041bb9db",
        "gas": "0x1c3e0",
        "value": "0x0",
        "input": "0xfba225b90000000000000000000000000000000000000000000000000000000000000004",
        "nonce": "0xe",
        "chainId": "0xaa36a7"
      },
      "additionalContracts": [],
      "isFixedGasLimit": false
    },
    {
      "hash": "0xe409aee6cda5107f18719b8e3c8ef9e5f48812644b0fd6e71c3f1857ac877fa3",
      "transactionType": "CALL",
      "contractName": null,
      "contractAddress": "0x1c7d4b196cb0c7b01d743fbc6116a902379c7238",
      "function": "approve(address,uint256)",
      "arguments": [
        "0x48f9219Cc45aD25c14aaBedf70d12b37041Bb9db",
        "10000"
      ],
      "transaction": {
        "from": "0xd2c2011d8c700094712c43435d16e3a9703e7f96",
        "to": "0x1c7d4b196cb0c7b01d743fbc6116a902379c7238",
        "gas": "0x13ca2",
        "value": "0x0",
        "input": "0x095ea7b300000000000000000000000048f9219cc45ad25c14aabedf70d12b37041bb9db0000000000000000000000000000000000000000000000000000000000002710",
        "nonce": "0xf",
        "chainId": "0xaa36a7"
      },
      "additionalContracts": [],
      "isFixedGasLimit": false
    },
    {
      "hash": "0xc454b14e5256dda56ae925d44ba875bf5ef627cdd5b80164ca8e81295be6c873",
      "transactionType": "CALL",
      "contractName": "OptionManager",
      "contractAddress": "0x48f9219cc45ad25c14aabedf70d12b37041bb9db",
      "function": "buyOption(uint256)",
      "arguments": [
        "5"
      ],
      "transaction": {
        "from": "0xd2c2011d8c700094712c43435d16e3a9703e7f96",
        "to": "0x48f9219cc45ad25c14aabedf70d12b37041bb9db",
        "gas": "0x1c3e0",
        "value": "0x0",
        "input": "0xfba225b90000000000000000000000000000000000000000000000000000000000000005",
        "nonce": "0x10",
        "chainId": "0xaa36a7"
      },
      "additionalContracts": [],
      "isFixedGasLimit": false
    }
  ],
  "receipts": [
    {
      "status": "0x1",
      "cumulativeGasUsed": "0x1c1e35f",
      "logs": [
        {
          "address": "0x1c7d4b196cb0c7b01d743fbc6116a902379c7238",
          "topics": [
            "0x8c5be1e5ebec7d5bd14f71427d1e84f3dd0314c0f7b2291e5b200ac8c7c3b925",
            "0x000000000000000000000000d2c2011d8c700094712c43435d16e3a9703e7f96",
            "0x00000000000000000000000048f9219cc45ad25c14aabedf70d12b37041bb9db"
          ],
          "data": "0x0000000000000000000000000000000000000000000000000000000000002710",
          "blockHash": "0x23f7bb02b6c684c036e79a6b8c22809a2d4c3e24148e3c0d2b8f0ac690a23691",
          "blockNumber": "0x74376e",
          "transactionHash": "0xd7986881e7149b57995dc61e74011e0e4a5edc51ffb03c6c6f8d5dc60f3144d0",
          "transactionIndex": "0xbd",
          "logIndex": "0x1c2",
          "removed": false
        }
      ],
      "logsBloom": "0x00000000000000000000000000000000000000000000000000000000000200000000000000000000000000000000000000000000000000000000000000200000000000000000000000000000000000000000000008000000000000000000000000000000000000000000000000000000000000400000000000000000000000000000000000100000000000000000000000000000004000000000000000000000021000000000000000000000000000000000000000000000000000000000000000000000000000000000000000008000001000000000000000000000000000000010000000000000000010000000000000000000000000000000000000000000",
      "type": "0x2",
      "transactionHash": "0xd7986881e7149b57995dc61e74011e0e4a5edc51ffb03c6c6f8d5dc60f3144d0",
      "transactionIndex": "0xbd",
      "blockHash": "0x23f7bb02b6c684c036e79a6b8c22809a2d4c3e24148e3c0d2b8f0ac690a23691",
      "blockNumber": "0x74376e",
      "gasUsed": "0xd881",
      "effectiveGasPrice": "0xd6b2a006",
      "from": "0xd2c2011d8c700094712c43435d16e3a9703e7f96",
      "to": "0x1c7d4b196cb0c7b01d743fbc6116a902379c7238",
      "contractAddress": null
    },
    {
      "status": "0x1",
      "cumulativeGasUsed": "0x1c32a86",
      "logs": [
        {
          "address": "0x1c7d4b196cb0c7b01d743fbc6116a902379c7238",
          "topics": [
            "0xddf252ad1be2c89b69c2b068fc378daa952ba7f163c4a11628f55a4df523b3ef",
            "0x000000000000000000000000d2c2011d8c700094712c43435d16e3a9703e7f96",
            "0x0000000000000000000000004d7233cab735078318ac948b1400fbe660048830"
          ],
          "data": "0x0000000000000000000000000000000000000000000000000000000000002710",
          "blockHash": "0x23f7bb02b6c684c036e79a6b8c22809a2d4c3e24148e3c0d2b8f0ac690a23691",
          "blockNumber": "0x74376e",
          "transactionHash": "0x99c32e6b526b80a6b7b87323f8f7aa3ba271900787f207922e3a2e0f43e8658f",
          "transactionIndex": "0xbe",
          "logIndex": "0x1c3",
          "removed": false
        },
        {
          "address": "0x48f9219cc45ad25c14aabedf70d12b37041bb9db",
          "topics": [
            "0xf818b60a04a5914080e463ac568206f291380303c88fc049b89d9acfa93139d2",
            "0x000000000000000000000000d2c2011d8c700094712c43435d16e3a9703e7f96"
          ],
          "data": "0x0000000000000000000000000000000000000000000000000000000000000004",
          "blockHash": "0x23f7bb02b6c684c036e79a6b8c22809a2d4c3e24148e3c0d2b8f0ac690a23691",
          "blockNumber": "0x74376e",
          "transactionHash": "0x99c32e6b526b80a6b7b87323f8f7aa3ba271900787f207922e3a2e0f43e8658f",
          "transactionIndex": "0xbe",
          "logIndex": "0x1c4",
          "removed": false
        }
      ],
      "logsBloom": "0x00000000000000000000000000000000000000800000000000000000000200000000000000000000000000000000000000000000000000000800000000000000000000000000000000000008000004000000000008000000000000000000000000000000000000000000000000000000000000400000000000000010000000000000000000300000000000000000000000000000000800000000000010000000001000000000000000000000000000000000000000000000000000000000000000008002000000000000000000000000000000000000000000000000000000000000000000000008000090000000000000000000000000000000000000000000",
      "type": "0x2",
      "transactionHash": "0x99c32e6b526b80a6b7b87323f8f7aa3ba271900787f207922e3a2e0f43e8658f",
      "transactionIndex": "0xbe",
      "blockHash": "0x23f7bb02b6c684c036e79a6b8c22809a2d4c3e24148e3c0d2b8f0ac690a23691",
      "blockNumber": "0x74376e",
      "gasUsed": "0x14727",
      "effectiveGasPrice": "0xd6b2a006",
      "from": "0xd2c2011d8c700094712c43435d16e3a9703e7f96",
      "to": "0x48f9219cc45ad25c14aabedf70d12b37041bb9db",
      "contractAddress": null
    },
    {
      "status": "0x1",
      "cumulativeGasUsed": "0x1c40307",
      "logs": [
        {
          "address": "0x1c7d4b196cb0c7b01d743fbc6116a902379c7238",
          "topics": [
            "0x8c5be1e5ebec7d5bd14f71427d1e84f3dd0314c0f7b2291e5b200ac8c7c3b925",
            "0x000000000000000000000000d2c2011d8c700094712c43435d16e3a9703e7f96",
            "0x00000000000000000000000048f9219cc45ad25c14aabedf70d12b37041bb9db"
          ],
          "data": "0x0000000000000000000000000000000000000000000000000000000000002710",
          "blockHash": "0x23f7bb02b6c684c036e79a6b8c22809a2d4c3e24148e3c0d2b8f0ac690a23691",
          "blockNumber": "0x74376e",
          "transactionHash": "0xe409aee6cda5107f18719b8e3c8ef9e5f48812644b0fd6e71c3f1857ac877fa3",
          "transactionIndex": "0xbf",
          "logIndex": "0x1c5",
          "removed": false
        }
      ],
      "logsBloom": "0x00000000000000000000000000000000000000000000000000000000000200000000000000000000000000000000000000000000000000000000000000200000000000000000000000000000000000000000000008000000000000000000000000000000000000000000000000000000000000400000000000000000000000000000000000100000000000000000000000000000004000000000000000000000021000000000000000000000000000000000000000000000000000000000000000000000000000000000000000008000001000000000000000000000000000000010000000000000000010000000000000000000000000000000000000000000",
      "type": "0x2",
      "transactionHash": "0xe409aee6cda5107f18719b8e3c8ef9e5f48812644b0fd6e71c3f1857ac877fa3",
      "transactionIndex": "0xbf",
      "blockHash": "0x23f7bb02b6c684c036e79a6b8c22809a2d4c3e24148e3c0d2b8f0ac690a23691",
      "blockNumber": "0x74376e",
      "gasUsed": "0xd881",
      "effectiveGasPrice": "0xd6b2a006",
      "from": "0xd2c2011d8c700094712c43435d16e3a9703e7f96",
      "to": "0x1c7d4b196cb0c7b01d743fbc6116a902379c7238",
      "contractAddress": null
    },
    {
      "status": "0x1",
      "cumulativeGasUsed": "0x1c54a2e",
      "logs": [
        {
          "address": "0x1c7d4b196cb0c7b01d743fbc6116a902379c7238",
          "topics": [
            "0xddf252ad1be2c89b69c2b068fc378daa952ba7f163c4a11628f55a4df523b3ef",
            "0x000000000000000000000000d2c2011d8c700094712c43435d16e3a9703e7f96",
            "0x0000000000000000000000004d7233cab735078318ac948b1400fbe660048830"
          ],
          "data": "0x0000000000000000000000000000000000000000000000000000000000002710",
          "blockHash": "0x23f7bb02b6c684c036e79a6b8c22809a2d4c3e24148e3c0d2b8f0ac690a23691",
          "blockNumber": "0x74376e",
          "transactionHash": "0xc454b14e5256dda56ae925d44ba875bf5ef627cdd5b80164ca8e81295be6c873",
          "transactionIndex": "0xc0",
          "logIndex": "0x1c6",
          "removed": false
        },
        {
          "address": "0x48f9219cc45ad25c14aabedf70d12b37041bb9db",
          "topics": [
            "0xf818b60a04a5914080e463ac568206f291380303c88fc049b89d9acfa93139d2",
            "0x000000000000000000000000d2c2011d8c700094712c43435d16e3a9703e7f96"
          ],
          "data": "0x0000000000000000000000000000000000000000000000000000000000000005",
          "blockHash": "0x23f7bb02b6c684c036e79a6b8c22809a2d4c3e24148e3c0d2b8f0ac690a23691",
          "blockNumber": "0x74376e",
          "transactionHash": "0xc454b14e5256dda56ae925d44ba875bf5ef627cdd5b80164ca8e81295be6c873",
          "transactionIndex": "0xc0",
          "logIndex": "0x1c7",
          "removed": false
        }
      ],
      "logsBloom": "0x00000000000000000000000000000000000000800000000000000000000200000000000000000000000000000000000000000000000000000800000000000000000000000000000000000008000004000000000008000000000000000000000000000000000000000000000000000000000000400000000000000010000000000000000000300000000000000000000000000000000800000000000010000000001000000000000000000000000000000000000000000000000000000000000000008002000000000000000000000000000000000000000000000000000000000000000000000008000090000000000000000000000000000000000000000000",
      "type": "0x2",
      "transactionHash": "0xc454b14e5256dda56ae925d44ba875bf5ef627cdd5b80164ca8e81295be6c873",
      "transactionIndex": "0xc0",
      "blockHash": "0x23f7bb02b6c684c036e79a6b8c22809a2d4c3e24148e3c0d2b8f0ac690a23691",
      "blockNumber": "0x74376e",
      "gasUsed": "0x14727",
      "effectiveGasPrice": "0xd6b2a006",
      "from": "0xd2c2011d8c700094712c43435d16e3a9703e7f96",
      "to": "0x48f9219cc45ad25c14aabedf70d12b37041bb9db",
      "contractAddress": null
    }
  ],
  "libraries": [],
  "pending": [],
  "returns": {},
  "timestamp": 1738401686,
  "chain": 11155111,
  "commit": "ebd54fd"
}