{
  "transactions": [
    {
      "hash": "0xedf7ae329ca076aa2f4504d770e37deac11b77072e384accfd88be03d8c923a0",
      "transactionType": "CALL",
      "contractName": null,
      "contractAddress": "0x1c7d4b196cb0c7b01d743fbc6116a902379c7238",
      "function": "approve(address,uint256)",
      "arguments": [
        "0x48f9219Cc45aD25c14aaBedf70d12b37041Bb9db",
        "10000"
      ],
      "transaction": {
        "from": "0xd2c2011d8c700094712c43435d16e3a9703e7f96",
        "to": "0x1c7d4b196cb0c7b01d743fbc6116a902379c7238",
        "gas": "0x13ca2",
        "value": "0x0",
        "input": "0x095ea7b300000000000000000000000048f9219cc45ad25c14aabedf70d12b37041bb9db0000000000000000000000000000000000000000000000000000000000002710",
        "nonce": "0xb",
        "chainId": "0xaa36a7"
      },
      "additionalContracts": [],
      "isFixedGasLimit": false
    },
    {
      "hash": "0x5ea4146203b0db9e72d53bea144778beed47d26607fbabf9f002b69af26d9136",
      "transactionType": "CALL",
      "contractName": "OptionManager",
      "contractAddress": "0x48f9219cc45ad25c14aabedf70d12b37041bb9db",
      "function": "buyOption(uint256)",
      "arguments": [
        "3"
      ],
      "transaction": {
        "from": "0xd2c2011d8c700094712c43435d16e3a9703e7f96",
        "to": "0x48f9219cc45ad25c14aabedf70d12b37041bb9db",
        "gas": "0x1c3e0",
        "value": "0x0",
        "input": "0xfba225b90000000000000000000000000000000000000000000000000000000000000003",
        "nonce": "0xc",
        "chainId": "0xaa36a7"
      },
      "additionalContracts": [],
      "isFixedGasLimit": false
    }
  ],
  "receipts": [
    {
      "status": "0x1",
      "cumulativeGasUsed": "0x11482ff",
      "logs": [
        {
          "address": "0x1c7d4b196cb0c7b01d743fbc6116a902379c7238",
          "topics": [
            "0x8c5be1e5ebec7d5bd14f71427d1e84f3dd0314c0f7b2291e5b200ac8c7c3b925",
            "0x000000000000000000000000d2c2011d8c700094712c43435d16e3a9703e7f96",
            "0x00000000000000000000000048f9219cc45ad25c14aabedf70d12b37041bb9db"
          ],
          "data": "0x0000000000000000000000000000000000000000000000000000000000002710",
          "blockHash": "0x84720fb5163a1b1f12a0c6aa0dbf171f0d4dc7a4b142bc24c46e3e84de5d8e1e",
          "blockNumber": "0x743753",
          "transactionHash": "0xedf7ae329ca076aa2f4504d770e37deac11b77072e384accfd88be03d8c923a0",
          "transactionIndex": "0xb8",
          "logIndex": "0x14d",
          "removed": false
        }
      ],
      "logsBloom": "0x00000000000000000000000000000000000000000000000000000000000200000000000000000000000000000000000000000000000000000000000000200000000000000000000000000000000000000000000008000000000000000000000000000000000000000000000000000000000000400000000000000000000000000000000000100000000000000000000000000000004000000000000000000000021000000000000000000000000000000000000000000000000000000000000000000000000000000000000000008000001000000000000000000000000000000010000000000000000010000000000000000000000000000000000000000000",
      "type": "0x2",
      "transactionHash": "0xedf7ae329ca076aa2f4504d770e37deac11b77072e384accfd88be03d8c923a0",
      "transactionIndex": "0xb8",
      "blockHash": "0x84720fb5163a1b1f12a0c6aa0dbf171f0d4dc7a4b142bc24c46e3e84de5d8e1e",
      "blockNumber": "0x743753",
      "gasUsed": "0xd881",
      "effectiveGasPrice": "0xeb639cd9",
      "from": "0xd2c2011d8c700094712c43435d16e3a9703e7f96",
      "to": "0x1c7d4b196cb0c7b01d743fbc6116a902379c7238",
      "contractAddress": null
    },
    {
      "status": "0x1",
      "cumulativeGasUsed": "0x115ca26",
      "logs": [
        {
          "address": "0x1c7d4b196cb0c7b01d743fbc6116a902379c7238",
          "topics": [
            "0xddf252ad1be2c89b69c2b068fc378daa952ba7f163c4a11628f55a4df523b3ef",
            "0x000000000000000000000000d2c2011d8c700094712c43435d16e3a9703e7f96",
            "0x0000000000000000000000004d7233cab735078318ac948b1400fbe660048830"
          ],
          "data": "0x0000000000000000000000000000000000000000000000000000000000002710",
          "blockHash": "0x84720fb5163a1b1f12a0c6aa0dbf171f0d4dc7a4b142bc24c46e3e84de5d8e1e",
          "blockNumber": "0x743753",
          "transactionHash": "0x5ea4146203b0db9e72d53bea144778beed47d26607fbabf9f002b69af26d9136",
          "transactionIndex": "0xb9",
          "logIndex": "0x14e",
          "removed": false
        },
        {
          "address": "0x48f9219cc45ad25c14aabedf70d12b37041bb9db",
          "topics": [
            "0xf818b60a04a5914080e463ac568206f291380303c88fc049b89d9acfa93139d2",
            "0x000000000000000000000000d2c2011d8c700094712c43435d16e3a9703e7f96"
          ],
          "data": "0x0000000000000000000000000000000000000000000000000000000000000003",
          "blockHash": "0x84720fb5163a1b1f12a0c6aa0dbf171f0d4dc7a4b142bc24c46e3e84de5d8e1e",
          "blockNumber": "0x743753",
          "transactionHash": "0x5ea4146203b0db9e72d53bea144778beed47d26607fbabf9f002b69af26d9136",
          "transactionIndex": "0xb9",
          "logIndex": "0x14f",
          "removed": false
        }
      ],
      "logsBloom": "0x00000000000000000000000000000000000000800000000000000000000200000000000000000000000000000000000000000000000000000800000000000000000000000000000000000008000004000000000008000000000000000000000000000000000000000000000000000000000000400000000000000010000000000000000000300000000000000000000000000000000800000000000010000000001000000000000000000000000000000000000000000000000000000000000000008002000000000000000000000000000000000000000000000000000000000000000000000008000090000000000000000000000000000000000000000000",
      "type": "0x2",
      "transactionHash": "0x5ea4146203b0db9e72d53bea144778beed47d26607fbabf9f002b69af26d9136",
      "transactionIndex": "0xb9",
      "blockHash": "0x84720fb5163a1b1f12a0c6aa0dbf171f0d4dc7a4b142bc24c46e3e84de5d8e1e",
      "blockNumber": "0x743753",
      "gasUsed": "0x14727",
      "effectiveGasPrice": "0xeb639cd9",
      "from": "0xd2c2011d8c700094712c43435d16e3a9703e7f96",
      "to": "0x48f9219cc45ad25c14aabedf70d12b37041bb9db",
      "contractAddress": null
    }
  ],
  "libraries": [],
  "pending": [],
  "returns": {},
  "timestamp": 1738401362,
  "chain": 11155111,
  "commit": "ebd54fd"
}